{
  "contractName": "MyToken",
  "abi": [
    {
      "inputs": [
        {
          "internalType": "uint256",
          "name": "_salePrice",
          "type": "uint256"
        },
        {
          "internalType": "string",
          "name": "_tokenName",
          "type": "string"
        },
        {
          "internalType": "string",
          "name": "_tokenSymbol",
          "type": "string"
        }
      ],
      "stateMutability": "nonpayable",
      "type": "constructor"
    },
    {
      "anonymous": false,
      "inputs": [
        {
          "indexed": true,
          "internalType": "address",
          "name": "owner",
          "type": "address"
        },
        {
          "indexed": true,
          "internalType": "address",
          "name": "approved",
          "type": "address"
        },
        {
          "indexed": true,
          "internalType": "uint256",
          "name": "tokenId",
          "type": "uint256"
        }
      ],
      "name": "Approval",
      "type": "event"
    },
    {
      "anonymous": false,
      "inputs": [
        {
          "indexed": true,
          "internalType": "address",
          "name": "owner",
          "type": "address"
        },
        {
          "indexed": true,
          "internalType": "address",
          "name": "operator",
          "type": "address"
        },
        {
          "indexed": false,
          "internalType": "bool",
          "name": "approved",
          "type": "bool"
        }
      ],
      "name": "ApprovalForAll",
      "type": "event"
    },
    {
      "anonymous": false,
      "inputs": [
        {
          "indexed": true,
          "internalType": "address",
          "name": "previousOwner",
          "type": "address"
        },
        {
          "indexed": true,
          "internalType": "address",
          "name": "newOwner",
          "type": "address"
        }
      ],
      "name": "OwnershipTransferred",
      "type": "event"
    },
    {
      "anonymous": false,
      "inputs": [
        {
          "indexed": true,
          "internalType": "address",
          "name": "from",
          "type": "address"
        },
        {
          "indexed": true,
          "internalType": "address",
          "name": "to",
          "type": "address"
        },
        {
          "indexed": true,
          "internalType": "uint256",
          "name": "tokenId",
          "type": "uint256"
        }
      ],
      "name": "Transfer",
      "type": "event"
    },
    {
      "inputs": [
        {
          "internalType": "address",
          "name": "to",
          "type": "address"
        },
        {
          "internalType": "uint256",
          "name": "tokenId",
          "type": "uint256"
        }
      ],
      "name": "approve",
      "outputs": [],
      "stateMutability": "nonpayable",
      "type": "function"
    },
    {
      "inputs": [
        {
          "internalType": "address",
          "name": "owner",
          "type": "address"
        }
      ],
      "name": "balanceOf",
      "outputs": [
        {
          "internalType": "uint256",
          "name": "",
          "type": "uint256"
        }
      ],
      "stateMutability": "view",
      "type": "function"
    },
    {
      "inputs": [],
      "name": "baseURI",
      "outputs": [
        {
          "internalType": "string",
          "name": "",
          "type": "string"
        }
      ],
      "stateMutability": "view",
      "type": "function"
    },
    {
      "inputs": [
        {
          "internalType": "uint256",
          "name": "tokenId",
          "type": "uint256"
        }
      ],
      "name": "getApproved",
      "outputs": [
        {
          "internalType": "address",
          "name": "",
          "type": "address"
        }
      ],
      "stateMutability": "view",
      "type": "function"
    },
    {
      "inputs": [
        {
          "internalType": "address",
          "name": "owner",
          "type": "address"
        },
        {
          "internalType": "address",
          "name": "operator",
          "type": "address"
        }
      ],
      "name": "isApprovedForAll",
      "outputs": [
        {
          "internalType": "bool",
          "name": "",
          "type": "bool"
        }
      ],
      "stateMutability": "view",
      "type": "function"
    },
    {
      "inputs": [],
      "name": "name",
      "outputs": [
        {
          "internalType": "string",
          "name": "",
          "type": "string"
        }
      ],
      "stateMutability": "view",
      "type": "function"
    },
    {
      "inputs": [],
      "name": "owner",
      "outputs": [
        {
          "internalType": "address",
          "name": "",
          "type": "address"
        }
      ],
      "stateMutability": "view",
      "type": "function"
    },
    {
      "inputs": [
        {
          "internalType": "uint256",
          "name": "tokenId",
          "type": "uint256"
        }
      ],
      "name": "ownerOf",
      "outputs": [
        {
          "internalType": "address",
          "name": "",
          "type": "address"
        }
      ],
      "stateMutability": "view",
      "type": "function"
    },
    {
      "inputs": [],
      "name": "renounceOwnership",
      "outputs": [],
      "stateMutability": "nonpayable",
      "type": "function"
    },
    {
      "inputs": [
        {
          "internalType": "address",
          "name": "from",
          "type": "address"
        },
        {
          "internalType": "address",
          "name": "to",
          "type": "address"
        },
        {
          "internalType": "uint256",
          "name": "tokenId",
          "type": "uint256"
        }
      ],
      "name": "safeTransferFrom",
      "outputs": [],
      "stateMutability": "nonpayable",
      "type": "function"
    },
    {
      "inputs": [
        {
          "internalType": "address",
          "name": "from",
          "type": "address"
        },
        {
          "internalType": "address",
          "name": "to",
          "type": "address"
        },
        {
          "internalType": "uint256",
          "name": "tokenId",
          "type": "uint256"
        },
        {
          "internalType": "bytes",
          "name": "_data",
          "type": "bytes"
        }
      ],
      "name": "safeTransferFrom",
      "outputs": [],
      "stateMutability": "nonpayable",
      "type": "function"
    },
    {
      "inputs": [],
      "name": "salePrice",
      "outputs": [
        {
          "internalType": "uint256",
          "name": "",
          "type": "uint256"
        }
      ],
      "stateMutability": "view",
      "type": "function"
    },
    {
      "inputs": [
        {
          "internalType": "address",
          "name": "operator",
          "type": "address"
        },
        {
          "internalType": "bool",
          "name": "approved",
          "type": "bool"
        }
      ],
      "name": "setApprovalForAll",
      "outputs": [],
      "stateMutability": "nonpayable",
      "type": "function"
    },
    {
      "inputs": [
        {
          "internalType": "bytes4",
          "name": "interfaceId",
          "type": "bytes4"
        }
      ],
      "name": "supportsInterface",
      "outputs": [
        {
          "internalType": "bool",
          "name": "",
          "type": "bool"
        }
      ],
      "stateMutability": "view",
      "type": "function"
    },
    {
      "inputs": [],
      "name": "symbol",
      "outputs": [
        {
          "internalType": "string",
          "name": "",
          "type": "string"
        }
      ],
      "stateMutability": "view",
      "type": "function"
    },
    {
      "inputs": [
        {
          "internalType": "uint256",
          "name": "tokenId",
          "type": "uint256"
        }
      ],
      "name": "tokenURI",
      "outputs": [
        {
          "internalType": "string",
          "name": "",
          "type": "string"
        }
      ],
      "stateMutability": "view",
      "type": "function"
    },
    {
      "inputs": [],
      "name": "totalSupply",
      "outputs": [
        {
          "internalType": "uint256",
          "name": "",
          "type": "uint256"
        }
      ],
      "stateMutability": "view",
      "type": "function"
    },
    {
      "inputs": [
        {
          "internalType": "address",
          "name": "from",
          "type": "address"
        },
        {
          "internalType": "address",
          "name": "to",
          "type": "address"
        },
        {
          "internalType": "uint256",
          "name": "tokenId",
          "type": "uint256"
        }
      ],
      "name": "transferFrom",
      "outputs": [],
      "stateMutability": "nonpayable",
      "type": "function"
    },
    {
      "inputs": [
        {
          "internalType": "address",
          "name": "newOwner",
          "type": "address"
        }
      ],
      "name": "transferOwnership",
      "outputs": [],
      "stateMutability": "nonpayable",
      "type": "function"
    },
    {
      "inputs": [
        {
          "internalType": "string",
          "name": "newUri",
          "type": "string"
        }
      ],
      "name": "setBaseUri",
      "outputs": [],
      "stateMutability": "nonpayable",
      "type": "function"
    },
    {
      "inputs": [
        {
          "internalType": "uint256",
          "name": "quantity",
          "type": "uint256"
        }
      ],
      "name": "buyNft",
      "outputs": [],
      "stateMutability": "payable",
      "type": "function"
    }
  ],
  "bytecode": "0x6080604052426007556040518060400160405280602081526020017f68747470733a2f2f666c6f79646e66742e636f6d2f746f6b656e2f2671756f748152506008908051906020019062000055929190620001c5565b506064600b556000600c553480156200006d57600080fd5b50604051620038583803806200385883398181016040528101906200009391906200030a565b8181620000b5620000a9620000f960201b60201c565b6200010160201b60201c565b8160019080519060200190620000cd929190620001c5565b508060029080519060200190620000e6929190620001c5565b50505082600a819055505050506200054c565b600033905090565b60008060009054906101000a900473ffffffffffffffffffffffffffffffffffffffff169050816000806101000a81548173ffffffffffffffffffffffffffffffffffffffff021916908373ffffffffffffffffffffffffffffffffffffffff1602179055508173ffffffffffffffffffffffffffffffffffffffff168173ffffffffffffffffffffffffffffffffffffffff167f8be0079c531659141344cd1fd0a4f28419497f9722a3daafe3b4186f6b6457e060405160405180910390a35050565b828054620001d39062000443565b90600052602060002090601f016020900481019282620001f7576000855562000243565b82601f106200021257805160ff191683800117855562000243565b8280016001018555821562000243579182015b828111156200024257825182559160200191906001019062000225565b5b50905062000252919062000256565b5090565b5b808211156200027157600081600090555060010162000257565b5090565b60006200028c6200028684620003cd565b620003a4565b905082815260208101848484011115620002ab57620002aa62000512565b5b620002b88482856200040d565b509392505050565b600082601f830112620002d857620002d76200050d565b5b8151620002ea84826020860162000275565b91505092915050565b600081519050620003048162000532565b92915050565b6000806000606084860312156200032657620003256200051c565b5b60006200033686828701620002f3565b935050602084015167ffffffffffffffff8111156200035a576200035962000517565b5b6200036886828701620002c0565b925050604084015167ffffffffffffffff8111156200038c576200038b62000517565b5b6200039a86828701620002c0565b9150509250925092565b6000620003b0620003c3565b9050620003be828262000479565b919050565b6000604051905090565b600067ffffffffffffffff821115620003eb57620003ea620004de565b5b620003f68262000521565b9050602081019050919050565b6000819050919050565b60005b838110156200042d57808201518184015260208101905062000410565b838111156200043d576000848401525b50505050565b600060028204905060018216806200045c57607f821691505b60208210811415620004735762000472620004af565b5b50919050565b620004848262000521565b810181811067ffffffffffffffff82111715620004a657620004a5620004de565b5b80604052505050565b7f4e487b7100000000000000000000000000000000000000000000000000000000600052602260045260246000fd5b7f4e487b7100000000000000000000000000000000000000000000000000000000600052604160045260246000fd5b600080fd5b600080fd5b600080fd5b600080fd5b6000601f19601f8301169050919050565b6200053d8162000403565b81146200054957600080fd5b50565b6132fc806200055c6000396000f3fe60806040526004361061012a5760003560e01c806370a08231116100ab578063a22cb4651161006f578063a22cb465146103d1578063b88d4fde146103fa578063c87b56dd14610423578063e985e9c514610460578063f2fde38b1461049d578063f51f96dd146104c65761012a565b806370a08231146102fe578063715018a61461033b5780638da5cb5b1461035257806395d89b411461037d578063a0bcfc7f146103a85761012a565b806323b872dd116100f257806323b872dd14610228578063243adbdd1461025157806342842e0e1461026d5780636352211e146102965780636c0360eb146102d35761012a565b806301ffc9a71461012f57806306fdde031461016c578063081812fc14610197578063095ea7b3146101d457806318160ddd146101fd575b600080fd5b34801561013b57600080fd5b506101566004803603810190610151919061212d565b6104f1565b6040516101639190612614565b60405180910390f35b34801561017857600080fd5b506101816105d3565b60405161018e919061262f565b60405180910390f35b3480156101a357600080fd5b506101be60048036038101906101b991906121d0565b610665565b6040516101cb91906125ad565b60405180910390f35b3480156101e057600080fd5b506101fb60048036038101906101f691906120ed565b6106ea565b005b34801561020957600080fd5b50610212610802565b60405161021f91906128d1565b60405180910390f35b34801561023457600080fd5b5061024f600480360381019061024a9190611fd7565b610808565b005b61026b600480360381019061026691906121d0565b610868565b005b34801561027957600080fd5b50610294600480360381019061028f9190611fd7565b6109a6565b005b3480156102a257600080fd5b506102bd60048036038101906102b891906121d0565b6109c6565b6040516102ca91906125ad565b60405180910390f35b3480156102df57600080fd5b506102e8610a78565b6040516102f5919061262f565b60405180910390f35b34801561030a57600080fd5b5061032560048036038101906103209190611f6a565b610b06565b60405161033291906128d1565b60405180910390f35b34801561034757600080fd5b50610350610bbe565b005b34801561035e57600080fd5b50610367610c46565b60405161037491906125ad565b60405180910390f35b34801561038957600080fd5b50610392610c6f565b60405161039f919061262f565b60405180910390f35b3480156103b457600080fd5b506103cf60048036038101906103ca9190612187565b610d01565b005b3480156103dd57600080fd5b506103f860048036038101906103f391906120ad565b610d97565b005b34801561040657600080fd5b50610421600480360381019061041c919061202a565b610f18565b005b34801561042f57600080fd5b5061044a600480360381019061044591906121d0565b610f7a565b604051610457919061262f565b60405180910390f35b34801561046c57600080fd5b5061048760048036038101906104829190611f97565b611021565b6040516104949190612614565b60405180910390f35b3480156104a957600080fd5b506104c460048036038101906104bf9190611f6a565b6110b5565b005b3480156104d257600080fd5b506104db6111ad565b6040516104e891906128d1565b60405180910390f35b60007f80ac58cd000000000000000000000000000000000000000000000000000000007bffffffffffffffffffffffffffffffffffffffffffffffffffffffff1916827bffffffffffffffffffffffffffffffffffffffffffffffffffffffff191614806105bc57507f5b5e139f000000000000000000000000000000000000000000000000000000007bffffffffffffffffffffffffffffffffffffffffffffffffffffffff1916827bffffffffffffffffffffffffffffffffffffffffffffffffffffffff1916145b806105cc57506105cb826111b3565b5b9050919050565b6060600180546105e290612b81565b80601f016020809104026020016040519081016040528092919081815260200182805461060e90612b81565b801561065b5780601f106106305761010080835404028352916020019161065b565b820191906000526020600020905b81548152906001019060200180831161063e57829003601f168201915b5050505050905090565b60006106708261121d565b6106af576040517f08c379a00000000000000000000000000000000000000000000000000000000081526004016106a6906127b1565b60405180910390fd5b6005600083815260200190815260200160002060009054906101000a900473ffffffffffffffffffffffffffffffffffffffff169050919050565b60006106f5826109c6565b90508073ffffffffffffffffffffffffffffffffffffffff168373ffffffffffffffffffffffffffffffffffffffff161415610766576040517f08c379a000000000000000000000000000000000000000000000000000000000815260040161075d90612831565b60405180910390fd5b8073ffffffffffffffffffffffffffffffffffffffff16610785611289565b73ffffffffffffffffffffffffffffffffffffffff1614806107b457506107b3816107ae611289565b611021565b5b6107f3576040517f08c379a00000000000000000000000000000000000000000000000000000000081526004016107ea90612711565b60405180910390fd5b6107fd8383611291565b505050565b60095481565b610819610813611289565b8261134a565b610858576040517f08c379a000000000000000000000000000000000000000000000000000000000815260040161084f90612871565b60405180910390fd5b610863838383611428565b505050565b6000600c54905081600a5461087d9190612a3d565b34146108be576040517f08c379a00000000000000000000000000000000000000000000000000000000081526004016108b590612791565b60405180910390fd5b620697806007546108cf91906129b6565b421015610911576040517f08c379a000000000000000000000000000000000000000000000000000000000815260040161090890612851565b60405180910390fd5b62278d0060075461092291906129b6565b421015610964576040517f08c379a000000000000000000000000000000000000000000000000000000000815260040161095b90612891565b60405180910390fd5b60005b8281101561099a57818061097a90612be4565b9250506109873383611684565b808061099290612be4565b915050610967565b5080600c819055505050565b6109c183838360405180602001604052806000815250610f18565b505050565b6000806003600084815260200190815260200160002060009054906101000a900473ffffffffffffffffffffffffffffffffffffffff169050600073ffffffffffffffffffffffffffffffffffffffff168173ffffffffffffffffffffffffffffffffffffffff161415610a6f576040517f08c379a0000000000000000000000000000000000000000000000000000000008152600401610a6690612751565b60405180910390fd5b80915050919050565b60088054610a8590612b81565b80601f0160208091040260200160405190810160405280929190818152602001828054610ab190612b81565b8015610afe5780601f10610ad357610100808354040283529160200191610afe565b820191906000526020600020905b815481529060010190602001808311610ae157829003601f168201915b505050505081565b60008073ffffffffffffffffffffffffffffffffffffffff168273ffffffffffffffffffffffffffffffffffffffff161415610b77576040517f08c379a0000000000000000000000000000000000000000000000000000000008152600401610b6e90612731565b60405180910390fd5b600460008373ffffffffffffffffffffffffffffffffffffffff1673ffffffffffffffffffffffffffffffffffffffff168152602001908152602001600020549050919050565b610bc6611289565b73ffffffffffffffffffffffffffffffffffffffff16610be4610c46565b73ffffffffffffffffffffffffffffffffffffffff1614610c3a576040517f08c379a0000000000000000000000000000000000000000000000000000000008152600401610c31906127d1565b60405180910390fd5b610c4460006116ee565b565b60008060009054906101000a900473ffffffffffffffffffffffffffffffffffffffff16905090565b606060028054610c7e90612b81565b80601f0160208091040260200160405190810160405280929190818152602001828054610caa90612b81565b8015610cf75780601f10610ccc57610100808354040283529160200191610cf7565b820191906000526020600020905b815481529060010190602001808311610cda57829003601f168201915b5050505050905090565b610d09611289565b73ffffffffffffffffffffffffffffffffffffffff16610d27610c46565b73ffffffffffffffffffffffffffffffffffffffff1614610d7d576040517f08c379a0000000000000000000000000000000000000000000000000000000008152600401610d74906127d1565b60405180910390fd5b8060089080519060200190610d93929190611d7e565b5050565b610d9f611289565b73ffffffffffffffffffffffffffffffffffffffff168273ffffffffffffffffffffffffffffffffffffffff161415610e0d576040517f08c379a0000000000000000000000000000000000000000000000000000000008152600401610e04906126d1565b60405180910390fd5b8060066000610e1a611289565b73ffffffffffffffffffffffffffffffffffffffff1673ffffffffffffffffffffffffffffffffffffffff16815260200190815260200160002060008473ffffffffffffffffffffffffffffffffffffffff1673ffffffffffffffffffffffffffffffffffffffff16815260200190815260200160002060006101000a81548160ff0219169083151502179055508173ffffffffffffffffffffffffffffffffffffffff16610ec7611289565b73ffffffffffffffffffffffffffffffffffffffff167f17307eab39ab6107e8899845ad3d59bd9653f200f220920489ca2b5937696c3183604051610f0c9190612614565b60405180910390a35050565b610f29610f23611289565b8361134a565b610f68576040517f08c379a0000000000000000000000000000000000000000000000000000000008152600401610f5f90612871565b60405180910390fd5b610f74848484846117b2565b50505050565b6060610f858261121d565b610fc4576040517f08c379a0000000000000000000000000000000000000000000000000000000008152600401610fbb90612811565b60405180910390fd5b6000610fce61180e565b90506000815111610fee5760405180602001604052806000815250611019565b80610ff8846118a0565b604051602001611009929190612589565b6040516020818303038152906040525b915050919050565b6000600660008473ffffffffffffffffffffffffffffffffffffffff1673ffffffffffffffffffffffffffffffffffffffff16815260200190815260200160002060008373ffffffffffffffffffffffffffffffffffffffff1673ffffffffffffffffffffffffffffffffffffffff16815260200190815260200160002060009054906101000a900460ff16905092915050565b6110bd611289565b73ffffffffffffffffffffffffffffffffffffffff166110db610c46565b73ffffffffffffffffffffffffffffffffffffffff1614611131576040517f08c379a0000000000000000000000000000000000000000000000000000000008152600401611128906127d1565b60405180910390fd5b600073ffffffffffffffffffffffffffffffffffffffff168173ffffffffffffffffffffffffffffffffffffffff1614156111a1576040517f08c379a000000000000000000000000000000000000000000000000000000000815260040161119890612671565b60405180910390fd5b6111aa816116ee565b50565b600a5481565b60007f01ffc9a7000000000000000000000000000000000000000000000000000000007bffffffffffffffffffffffffffffffffffffffffffffffffffffffff1916827bffffffffffffffffffffffffffffffffffffffffffffffffffffffff1916149050919050565b60008073ffffffffffffffffffffffffffffffffffffffff166003600084815260200190815260200160002060009054906101000a900473ffffffffffffffffffffffffffffffffffffffff1673ffffffffffffffffffffffffffffffffffffffff1614159050919050565b600033905090565b816005600083815260200190815260200160002060006101000a81548173ffffffffffffffffffffffffffffffffffffffff021916908373ffffffffffffffffffffffffffffffffffffffff160217905550808273ffffffffffffffffffffffffffffffffffffffff16611304836109c6565b73ffffffffffffffffffffffffffffffffffffffff167f8c5be1e5ebec7d5bd14f71427d1e84f3dd0314c0f7b2291e5b200ac8c7c3b92560405160405180910390a45050565b60006113558261121d565b611394576040517f08c379a000000000000000000000000000000000000000000000000000000000815260040161138b906126f1565b60405180910390fd5b600061139f836109c6565b90508073ffffffffffffffffffffffffffffffffffffffff168473ffffffffffffffffffffffffffffffffffffffff16148061140e57508373ffffffffffffffffffffffffffffffffffffffff166113f684610665565b73ffffffffffffffffffffffffffffffffffffffff16145b8061141f575061141e8185611021565b5b91505092915050565b8273ffffffffffffffffffffffffffffffffffffffff16611448826109c6565b73ffffffffffffffffffffffffffffffffffffffff161461149e576040517f08c379a0000000000000000000000000000000000000000000000000000000008152600401611495906127f1565b60405180910390fd5b600073ffffffffffffffffffffffffffffffffffffffff168273ffffffffffffffffffffffffffffffffffffffff16141561150e576040517f08c379a0000000000000000000000000000000000000000000000000000000008152600401611505906126b1565b60405180910390fd5b611519838383611a01565b611524600082611291565b6001600460008573ffffffffffffffffffffffffffffffffffffffff1673ffffffffffffffffffffffffffffffffffffffff16815260200190815260200160002060008282546115749190612a97565b925050819055506001600460008473ffffffffffffffffffffffffffffffffffffffff1673ffffffffffffffffffffffffffffffffffffffff16815260200190815260200160002060008282546115cb91906129b6565b92505081905550816003600083815260200190815260200160002060006101000a81548173ffffffffffffffffffffffffffffffffffffffff021916908373ffffffffffffffffffffffffffffffffffffffff160217905550808273ffffffffffffffffffffffffffffffffffffffff168473ffffffffffffffffffffffffffffffffffffffff167fddf252ad1be2c89b69c2b068fc378daa952ba7f163c4a11628f55a4df523b3ef60405160405180910390a4505050565b60648111156116c8576040517f08c379a00000000000000000000000000000000000000000000000000000000081526004016116bf906128b1565b60405180910390fd5b6116d28282611a06565b600960008154809291906116e590612be4565b91905055505050565b60008060009054906101000a900473ffffffffffffffffffffffffffffffffffffffff169050816000806101000a81548173ffffffffffffffffffffffffffffffffffffffff021916908373ffffffffffffffffffffffffffffffffffffffff1602179055508173ffffffffffffffffffffffffffffffffffffffff168173ffffffffffffffffffffffffffffffffffffffff167f8be0079c531659141344cd1fd0a4f28419497f9722a3daafe3b4186f6b6457e060405160405180910390a35050565b6117bd848484611428565b6117c984848484611bd4565b611808576040517f08c379a00000000000000000000000000000000000000000000000000000000081526004016117ff90612651565b60405180910390fd5b50505050565b60606008805461181d90612b81565b80601f016020809104026020016040519081016040528092919081815260200182805461184990612b81565b80156118965780601f1061186b57610100808354040283529160200191611896565b820191906000526020600020905b81548152906001019060200180831161187957829003601f168201915b5050505050905090565b606060008214156118e8576040518060400160405280600181526020017f300000000000000000000000000000000000000000000000000000000000000081525090506119fc565b600082905060005b6000821461191a57808061190390612be4565b915050600a826119139190612a0c565b91506118f0565b60008167ffffffffffffffff81111561193657611935612d1a565b5b6040519080825280601f01601f1916602001820160405280156119685781602001600182028036833780820191505090505b5090505b600085146119f5576001826119819190612a97565b9150600a856119909190612c2d565b603061199c91906129b6565b60f81b8183815181106119b2576119b1612ceb565b5b60200101907effffffffffffffffffffffffffffffffffffffffffffffffffffffffffffff1916908160001a905350600a856119ee9190612a0c565b945061196c565b8093505050505b919050565b505050565b600073ffffffffffffffffffffffffffffffffffffffff168273ffffffffffffffffffffffffffffffffffffffff161415611a76576040517f08c379a0000000000000000000000000000000000000000000000000000000008152600401611a6d90612771565b60405180910390fd5b611a7f8161121d565b15611abf576040517f08c379a0000000000000000000000000000000000000000000000000000000008152600401611ab690612691565b60405180910390fd5b611acb60008383611a01565b6001600460008473ffffffffffffffffffffffffffffffffffffffff1673ffffffffffffffffffffffffffffffffffffffff1681526020019081526020016000206000828254611b1b91906129b6565b92505081905550816003600083815260200190815260200160002060006101000a81548173ffffffffffffffffffffffffffffffffffffffff021916908373ffffffffffffffffffffffffffffffffffffffff160217905550808273ffffffffffffffffffffffffffffffffffffffff16600073ffffffffffffffffffffffffffffffffffffffff167fddf252ad1be2c89b69c2b068fc378daa952ba7f163c4a11628f55a4df523b3ef60405160405180910390a45050565b6000611bf58473ffffffffffffffffffffffffffffffffffffffff16611d6b565b15611d5e578373ffffffffffffffffffffffffffffffffffffffff1663150b7a02611c1e611289565b8786866040518563ffffffff1660e01b8152600401611c4094939291906125c8565b602060405180830381600087803b158015611c5a57600080fd5b505af1925050508015611c8b57506040513d601f19601f82011682018060405250810190611c88919061215a565b60015b611d0e573d8060008114611cbb576040519150601f19603f3d011682016040523d82523d6000602084013e611cc0565b606091505b50600081511415611d06576040517f08c379a0000000000000000000000000000000000000000000000000000000008152600401611cfd90612651565b60405180910390fd5b805181602001fd5b63150b7a0260e01b7bffffffffffffffffffffffffffffffffffffffffffffffffffffffff1916817bffffffffffffffffffffffffffffffffffffffffffffffffffffffff191614915050611d63565b600190505b949350505050565b600080823b905060008111915050919050565b828054611d8a90612b81565b90600052602060002090601f016020900481019282611dac5760008555611df3565b82601f10611dc557805160ff1916838001178555611df3565b82800160010185558215611df3579182015b82811115611df2578251825591602001919060010190611dd7565b5b509050611e009190611e04565b5090565b5b80821115611e1d576000816000905550600101611e05565b5090565b6000611e34611e2f84612911565b6128ec565b905082815260208101848484011115611e5057611e4f612d4e565b5b611e5b848285612b3f565b509392505050565b6000611e76611e7184612942565b6128ec565b905082815260208101848484011115611e9257611e91612d4e565b5b611e9d848285612b3f565b509392505050565b600081359050611eb48161326a565b92915050565b600081359050611ec981613281565b92915050565b600081359050611ede81613298565b92915050565b600081519050611ef381613298565b92915050565b600082601f830112611f0e57611f0d612d49565b5b8135611f1e848260208601611e21565b91505092915050565b600082601f830112611f3c57611f3b612d49565b5b8135611f4c848260208601611e63565b91505092915050565b600081359050611f64816132af565b92915050565b600060208284031215611f8057611f7f612d58565b5b6000611f8e84828501611ea5565b91505092915050565b60008060408385031215611fae57611fad612d58565b5b6000611fbc85828601611ea5565b9250506020611fcd85828601611ea5565b9150509250929050565b600080600060608486031215611ff057611fef612d58565b5b6000611ffe86828701611ea5565b935050602061200f86828701611ea5565b925050604061202086828701611f55565b9150509250925092565b6000806000806080858703121561204457612043612d58565b5b600061205287828801611ea5565b945050602061206387828801611ea5565b935050604061207487828801611f55565b925050606085013567ffffffffffffffff81111561209557612094612d53565b5b6120a187828801611ef9565b91505092959194509250565b600080604083850312156120c4576120c3612d58565b5b60006120d285828601611ea5565b92505060206120e385828601611eba565b9150509250929050565b6000806040838503121561210457612103612d58565b5b600061211285828601611ea5565b925050602061212385828601611f55565b9150509250929050565b60006020828403121561214357612142612d58565b5b600061215184828501611ecf565b91505092915050565b6000602082840312156121705761216f612d58565b5b600061217e84828501611ee4565b91505092915050565b60006020828403121561219d5761219c612d58565b5b600082013567ffffffffffffffff8111156121bb576121ba612d53565b5b6121c784828501611f27565b91505092915050565b6000602082840312156121e6576121e5612d58565b5b60006121f484828501611f55565b91505092915050565b61220681612acb565b82525050565b61221581612add565b82525050565b600061222682612973565b6122308185612989565b9350612240818560208601612b4e565b61224981612d5d565b840191505092915050565b600061225f8261297e565b612269818561299a565b9350612279818560208601612b4e565b61228281612d5d565b840191505092915050565b60006122988261297e565b6122a281856129ab565b93506122b2818560208601612b4e565b80840191505092915050565b60006122cb60328361299a565b91506122d682612d6e565b604082019050919050565b60006122ee60268361299a565b91506122f982612dbd565b604082019050919050565b6000612311601c8361299a565b915061231c82612e0c565b602082019050919050565b600061233460248361299a565b915061233f82612e35565b604082019050919050565b600061235760198361299a565b915061236282612e84565b602082019050919050565b600061237a602c8361299a565b915061238582612ead565b604082019050919050565b600061239d60388361299a565b91506123a882612efc565b604082019050919050565b60006123c0602a8361299a565b91506123cb82612f4b565b604082019050919050565b60006123e360298361299a565b91506123ee82612f9a565b604082019050919050565b600061240660208361299a565b915061241182612fe9565b602082019050919050565b6000612429600f8361299a565b915061243482613012565b602082019050919050565b600061244c602c8361299a565b91506124578261303b565b604082019050919050565b600061246f60208361299a565b915061247a8261308a565b602082019050919050565b600061249260298361299a565b915061249d826130b3565b604082019050919050565b60006124b5602f8361299a565b91506124c082613102565b604082019050919050565b60006124d860218361299a565b91506124e382613151565b604082019050919050565b60006124fb60128361299a565b9150612506826131a0565b602082019050919050565b600061251e60318361299a565b9150612529826131c9565b604082019050919050565b600061254160128361299a565b915061254c82613218565b602082019050919050565b6000612564600f8361299a565b915061256f82613241565b602082019050919050565b61258381612b35565b82525050565b6000612595828561228d565b91506125a1828461228d565b91508190509392505050565b60006020820190506125c260008301846121fd565b92915050565b60006080820190506125dd60008301876121fd565b6125ea60208301866121fd565b6125f7604083018561257a565b8181036060830152612609818461221b565b905095945050505050565b6000602082019050612629600083018461220c565b92915050565b600060208201905081810360008301526126498184612254565b905092915050565b6000602082019050818103600083015261266a816122be565b9050919050565b6000602082019050818103600083015261268a816122e1565b9050919050565b600060208201905081810360008301526126aa81612304565b9050919050565b600060208201905081810360008301526126ca81612327565b9050919050565b600060208201905081810360008301526126ea8161234a565b9050919050565b6000602082019050818103600083015261270a8161236d565b9050919050565b6000602082019050818103600083015261272a81612390565b9050919050565b6000602082019050818103600083015261274a816123b3565b9050919050565b6000602082019050818103600083015261276a816123d6565b9050919050565b6000602082019050818103600083015261278a816123f9565b9050919050565b600060208201905081810360008301526127aa8161241c565b9050919050565b600060208201905081810360008301526127ca8161243f565b9050919050565b600060208201905081810360008301526127ea81612462565b9050919050565b6000602082019050818103600083015261280a81612485565b9050919050565b6000602082019050818103600083015261282a816124a8565b9050919050565b6000602082019050818103600083015261284a816124cb565b9050919050565b6000602082019050818103600083015261286a816124ee565b9050919050565b6000602082019050818103600083015261288a81612511565b9050919050565b600060208201905081810360008301526128aa81612534565b9050919050565b600060208201905081810360008301526128ca81612557565b9050919050565b60006020820190506128e6600083018461257a565b92915050565b60006128f6612907565b90506129028282612bb3565b919050565b6000604051905090565b600067ffffffffffffffff82111561292c5761292b612d1a565b5b61293582612d5d565b9050602081019050919050565b600067ffffffffffffffff82111561295d5761295c612d1a565b5b61296682612d5d565b9050602081019050919050565b600081519050919050565b600081519050919050565b600082825260208201905092915050565b600082825260208201905092915050565b600081905092915050565b60006129c182612b35565b91506129cc83612b35565b9250827fffffffffffffffffffffffffffffffffffffffffffffffffffffffffffffffff03821115612a0157612a00612c5e565b5b828201905092915050565b6000612a1782612b35565b9150612a2283612b35565b925082612a3257612a31612c8d565b5b828204905092915050565b6000612a4882612b35565b9150612a5383612b35565b9250817fffffffffffffffffffffffffffffffffffffffffffffffffffffffffffffffff0483118215151615612a8c57612a8b612c5e565b5b828202905092915050565b6000612aa282612b35565b9150612aad83612b35565b925082821015612ac057612abf612c5e565b5b828203905092915050565b6000612ad682612b15565b9050919050565b60008115159050919050565b60007fffffffff0000000000000000000000000000000000000000000000000000000082169050919050565b600073ffffffffffffffffffffffffffffffffffffffff82169050919050565b6000819050919050565b82818337600083830152505050565b60005b83811015612b6c578082015181840152602081019050612b51565b83811115612b7b576000848401525b50505050565b60006002820490506001821680612b9957607f821691505b60208210811415612bad57612bac612cbc565b5b50919050565b612bbc82612d5d565b810181811067ffffffffffffffff82111715612bdb57612bda612d1a565b5b80604052505050565b6000612bef82612b35565b91507fffffffffffffffffffffffffffffffffffffffffffffffffffffffffffffffff821415612c2257612c21612c5e565b5b600182019050919050565b6000612c3882612b35565b9150612c4383612b35565b925082612c5357612c52612c8d565b5b828206905092915050565b7f4e487b7100000000000000000000000000000000000000000000000000000000600052601160045260246000fd5b7f4e487b7100000000000000000000000000000000000000000000000000000000600052601260045260246000fd5b7f4e487b7100000000000000000000000000000000000000000000000000000000600052602260045260246000fd5b7f4e487b7100000000000000000000000000000000000000000000000000000000600052603260045260246000fd5b7f4e487b7100000000000000000000000000000000000000000000000000000000600052604160045260246000fd5b600080fd5b600080fd5b600080fd5b600080fd5b6000601f19601f8301169050919050565b7f4552433732313a207472616e7366657220746f206e6f6e20455243373231526560008201527f63656976657220696d706c656d656e7465720000000000000000000000000000602082015250565b7f4f776e61626c653a206e6577206f776e657220697320746865207a65726f206160008201527f6464726573730000000000000000000000000000000000000000000000000000602082015250565b7f4552433732313a20746f6b656e20616c7265616479206d696e74656400000000600082015250565b7f4552433732313a207472616e7366657220746f20746865207a65726f2061646460008201527f7265737300000000000000000000000000000000000000000000000000000000602082015250565b7f4552433732313a20617070726f766520746f2063616c6c657200000000000000600082015250565b7f4552433732313a206f70657261746f7220717565727920666f72206e6f6e657860008201527f697374656e7420746f6b656e0000000000000000000000000000000000000000602082015250565b7f4552433732313a20617070726f76652063616c6c6572206973206e6f74206f7760008201527f6e6572206e6f7220617070726f76656420666f7220616c6c0000000000000000602082015250565b7f4552433732313a2062616c616e636520717565727920666f7220746865207a6560008201527f726f206164647265737300000000000000000000000000000000000000000000602082015250565b7f4552433732313a206f776e657220717565727920666f72206e6f6e657869737460008201527f656e7420746f6b656e0000000000000000000000000000000000000000000000602082015250565b7f4552433732313a206d696e7420746f20746865207a65726f2061646472657373600082015250565b7f496e76616c696420616d6f756e74210000000000000000000000000000000000600082015250565b7f4552433732313a20617070726f76656420717565727920666f72206e6f6e657860008201527f697374656e7420746f6b656e0000000000000000000000000000000000000000602082015250565b7f4f776e61626c653a2063616c6c6572206973206e6f7420746865206f776e6572600082015250565b7f4552433732313a207472616e73666572206f6620746f6b656e2074686174206960008201527f73206e6f74206f776e0000000000000000000000000000000000000000000000602082015250565b7f4552433732314d657461646174613a2055524920717565727920666f72206e6f60008201527f6e6578697374656e7420746f6b656e0000000000000000000000000000000000602082015250565b7f4552433732313a20617070726f76616c20746f2063757272656e74206f776e6560008201527f7200000000000000000000000000000000000000000000000000000000000000602082015250565b7f53616c65206e6f74207374617274207965740000000000000000000000000000600082015250565b7f4552433732313a207472616e736665722063616c6c6572206973206e6f74206f60008201527f776e6572206e6f7220617070726f766564000000000000000000000000000000602082015250565b7f536c616573206861732066696e69736865640000000000000000000000000000600082015250565b7f416c726561647920637265617465640000000000000000000000000000000000600082015250565b61327381612acb565b811461327e57600080fd5b50565b61328a81612add565b811461329557600080fd5b50565b6132a181612ae9565b81146132ac57600080fd5b50565b6132b881612b35565b81146132c357600080fd5b5056fea2646970667358221220e6cf09e3e89c78d318689db3137e5b917467bcb55e857ce318538ebbaca69a5d64736f6c63430008070033",
  "immutableReferences": {},
  "source": "// SPDX-License-Identifier: MIT\r\n\r\npragma solidity 0.8.7;\r\n\r\ninterface IERC165 {\r\n    \r\n    function supportsInterface(bytes4 interfaceId) external view returns (bool);\r\n}\r\ninterface IERC721 is IERC165 {\r\n    \r\n    event Transfer(address indexed from, address indexed to, uint256 indexed tokenId);\r\n\r\n   \r\n    event Approval(address indexed owner, address indexed approved, uint256 indexed tokenId);\r\n\r\n    event ApprovalForAll(address indexed owner, address indexed operator, bool approved);\r\n\r\n    \r\n    function balanceOf(address owner) external view returns (uint256 balance);\r\n\r\n    \r\n    function ownerOf(uint256 tokenId) external view returns (address owner);\r\n\r\n   \r\n    function safeTransferFrom(\r\n        address from,\r\n        address to,\r\n        uint256 tokenId\r\n    ) external;\r\n\r\n    \r\n    function transferFrom(\r\n        address from,\r\n        address to,\r\n        uint256 tokenId\r\n    ) external;\r\n\r\n    \r\n    function approve(address to, uint256 tokenId) external;\r\n\r\n    \r\n    function getApproved(uint256 tokenId) external view returns (address operator);\r\n\r\n    \r\n    function setApprovalForAll(address operator, bool _approved) external;\r\n\r\n    \r\n    function isApprovedForAll(address owner, address operator) external view returns (bool);\r\n\r\n    \r\n    function safeTransferFrom(\r\n        address from,\r\n        address to,\r\n        uint256 tokenId,\r\n        bytes calldata data\r\n    ) external;\r\n}\r\ninterface IERC721Receiver {\r\n    \r\n    function onERC721Received(\r\n        address operator,\r\n        address from,\r\n        uint256 tokenId,\r\n        bytes calldata data\r\n    ) external returns (bytes4);\r\n}\r\ninterface IERC721Metadata is IERC721 {\r\n    \r\n    function name() external view returns (string memory);\r\n\r\n    \r\n    function symbol() external view returns (string memory);\r\n\r\n    \r\n    function tokenURI(uint256 tokenId) external view returns (string memory);\r\n}\r\n\r\nlibrary Address {\r\n    \r\n    function isContract(address account) internal view returns (bool) {\r\n        \r\n        \r\n        \r\n\r\n        uint256 size;\r\n        assembly {\r\n            size := extcodesize(account)\r\n        }\r\n        return size > 0;\r\n    }\r\n\r\n    \r\n    function sendValue(address payable recipient, uint256 amount) internal {\r\n        require(address(this).balance >= amount, \"Address: insufficient balance\");\r\n\r\n        (bool success, ) = recipient.call{value: amount}(\"\");\r\n        require(success, \"Address: unable to send value, recipient may have reverted\");\r\n    }\r\n\r\n    \r\n    function functionCall(address target, bytes memory data) internal returns (bytes memory) {\r\n        return functionCall(target, data, \"Address: low-level call failed\");\r\n    }\r\n\r\n    \r\n    function functionCall(\r\n        address target,\r\n        bytes memory data,\r\n        string memory errorMessage\r\n    ) internal returns (bytes memory) {\r\n        return functionCallWithValue(target, data, 0, errorMessage);\r\n    }\r\n\r\n    \r\n    function functionCallWithValue(\r\n        address target,\r\n        bytes memory data,\r\n        uint256 value\r\n    ) internal returns (bytes memory) {\r\n        return functionCallWithValue(target, data, value, \"Address: low-level call with value failed\");\r\n    }\r\n\r\n    \r\n    function functionCallWithValue(\r\n        address target,\r\n        bytes memory data,\r\n        uint256 value,\r\n        string memory errorMessage\r\n    ) internal returns (bytes memory) {\r\n        require(address(this).balance >= value, \"Address: insufficient balance for call\");\r\n        require(isContract(target), \"Address: call to non-contract\");\r\n\r\n        (bool success, bytes memory returndata) = target.call{value: value}(data);\r\n        return _verifyCallResult(success, returndata, errorMessage);\r\n    }\r\n\r\n    \r\n    function functionStaticCall(address target, bytes memory data) internal view returns (bytes memory) {\r\n        return functionStaticCall(target, data, \"Address: low-level static call failed\");\r\n    }\r\n\r\n    \r\n    function functionStaticCall(\r\n        address target,\r\n        bytes memory data,\r\n        string memory errorMessage\r\n    ) internal view returns (bytes memory) {\r\n        require(isContract(target), \"Address: static call to non-contract\");\r\n\r\n        (bool success, bytes memory returndata) = target.staticcall(data);\r\n        return _verifyCallResult(success, returndata, errorMessage);\r\n    }\r\n\r\n    \r\n    function functionDelegateCall(address target, bytes memory data) internal returns (bytes memory) {\r\n        return functionDelegateCall(target, data, \"Address: low-level delegate call failed\");\r\n    }\r\n\r\n    \r\n    function functionDelegateCall(\r\n        address target,\r\n        bytes memory data,\r\n        string memory errorMessage\r\n    ) internal returns (bytes memory) {\r\n        require(isContract(target), \"Address: delegate call to non-contract\");\r\n\r\n        (bool success, bytes memory returndata) = target.delegatecall(data);\r\n        return _verifyCallResult(success, returndata, errorMessage);\r\n    }\r\n\r\n    function _verifyCallResult(\r\n        bool success,\r\n        bytes memory returndata,\r\n        string memory errorMessage\r\n    ) private pure returns (bytes memory) {\r\n        if (success) {\r\n            return returndata;\r\n        } else {\r\n            \r\n            if (returndata.length > 0) {\r\n                \r\n\r\n                assembly {\r\n                    let returndata_size := mload(returndata)\r\n                    revert(add(32, returndata), returndata_size)\r\n                }\r\n            } else {\r\n                revert(errorMessage);\r\n            }\r\n        }\r\n    }\r\n}\r\n\r\nabstract contract Context {\r\n    function _msgSender() internal view virtual returns (address) {\r\n        return msg.sender;\r\n    }\r\n\r\n    function _msgData() internal view virtual returns (bytes calldata) {\r\n        return msg.data;\r\n    }\r\n}\r\n\r\nlibrary Strings {\r\n    bytes16 private constant _HEX_SYMBOLS = \"0123456789abcdef\";\r\n\r\n    \r\n    function toString(uint256 value) internal pure returns (string memory) {\r\n        \r\n        \r\n\r\n        if (value == 0) {\r\n            return \"0\";\r\n        }\r\n        uint256 temp = value;\r\n        uint256 digits;\r\n        while (temp != 0) {\r\n            digits++;\r\n            temp /= 10;\r\n        }\r\n        bytes memory buffer = new bytes(digits);\r\n        while (value != 0) {\r\n            digits -= 1;\r\n            buffer[digits] = bytes1(uint8(48 + uint256(value % 10)));\r\n            value /= 10;\r\n        }\r\n        return string(buffer);\r\n    }\r\n\r\n    \r\n    function toHexString(uint256 value) internal pure returns (string memory) {\r\n        if (value == 0) {\r\n            return \"0x00\";\r\n        }\r\n        uint256 temp = value;\r\n        uint256 length = 0;\r\n        while (temp != 0) {\r\n            length++;\r\n            temp >>= 8;\r\n        }\r\n        return toHexString(value, length);\r\n    }\r\n\r\n    \r\n    function toHexString(uint256 value, uint256 length) internal pure returns (string memory) {\r\n        bytes memory buffer = new bytes(2 * length + 2);\r\n        buffer[0] = \"0\";\r\n        buffer[1] = \"x\";\r\n        for (uint256 i = 2 * length + 1; i > 1; --i) {\r\n            buffer[i] = _HEX_SYMBOLS[value & 0xf];\r\n            value >>= 4;\r\n        }\r\n        require(value == 0, \"Strings: hex length insufficient\");\r\n        return string(buffer);\r\n    }\r\n}\r\nabstract contract ERC165 is IERC165 {\r\n    \r\n    function supportsInterface(bytes4 interfaceId) public view virtual override returns (bool) {\r\n        return interfaceId == type(IERC165).interfaceId;\r\n    }\r\n}\r\ncontract ERC721 is Context, ERC165, IERC721, IERC721Metadata {\r\n    using Address for address;\r\n    using Strings for uint256;\r\n\r\n    // Token name\r\n    string private _name;\r\n\r\n    // Token symbol\r\n    string private _symbol;\r\n\r\n    // Mapping from token ID to owner address\r\n    mapping(uint256 => address) private _owners;\r\n\r\n    // Mapping owner address to token count\r\n    mapping(address => uint256) private _balances;\r\n\r\n    // Mapping from token ID to approved address\r\n    mapping(uint256 => address) private _tokenApprovals;\r\n\r\n    // Mapping from owner to operator approvals\r\n    mapping(address => mapping(address => bool)) private _operatorApprovals;\r\n\r\n    /**\r\n     * @dev Initializes the contract by setting a `name` and a `symbol` to the token collection.\r\n     */\r\n    constructor(string memory name_, string memory symbol_) {\r\n        _name = name_;\r\n        _symbol = symbol_;\r\n    }\r\n\r\n    /**\r\n     * @dev See {IERC165-supportsInterface}.\r\n     */\r\n    function supportsInterface(bytes4 interfaceId) public view virtual override(ERC165, IERC165) returns (bool) {\r\n        return\r\n            interfaceId == type(IERC721).interfaceId ||\r\n            interfaceId == type(IERC721Metadata).interfaceId ||\r\n            super.supportsInterface(interfaceId);\r\n    }\r\n\r\n    /**\r\n     * @dev See {IERC721-balanceOf}.\r\n     */\r\n    function balanceOf(address owner) public view virtual override returns (uint256) {\r\n        require(owner != address(0), \"ERC721: balance query for the zero address\");\r\n        return _balances[owner];\r\n    }\r\n\r\n    /**\r\n     * @dev See {IERC721-ownerOf}.\r\n     */\r\n    function ownerOf(uint256 tokenId) public view virtual override returns (address) {\r\n        address owner = _owners[tokenId];\r\n        require(owner != address(0), \"ERC721: owner query for nonexistent token\");\r\n        return owner;\r\n    }\r\n\r\n    /**\r\n     * @dev See {IERC721Metadata-name}.\r\n     */\r\n    function name() public view virtual override returns (string memory) {\r\n        return _name;\r\n    }\r\n\r\n    /**\r\n     * @dev See {IERC721Metadata-symbol}.\r\n     */\r\n    function symbol() public view virtual override returns (string memory) {\r\n        return _symbol;\r\n    }\r\n\r\n    /**\r\n     * @dev See {IERC721Metadata-tokenURI}.\r\n     */\r\n    function tokenURI(uint256 tokenId) public view virtual override returns (string memory) {\r\n        require(_exists(tokenId), \"ERC721Metadata: URI query for nonexistent token\");\r\n\r\n        string memory baseURI = _baseURI();\r\n        return bytes(baseURI).length > 0 ? string(abi.encodePacked(baseURI, tokenId.toString())) : \"\";\r\n    }\r\n\r\n    /**\r\n     * @dev Base URI for computing {tokenURI}. If set, the resulting URI for each\r\n     * token will be the concatenation of the `baseURI` and the `tokenId`. Empty\r\n     * by default, can be overriden in child contracts.\r\n     */\r\n    function _baseURI() internal view virtual returns (string memory) {\r\n        return \"\";\r\n    }\r\n\r\n    /**\r\n     * @dev See {IERC721-approve}.\r\n     */\r\n    function approve(address to, uint256 tokenId) public virtual override {\r\n        address owner = ERC721.ownerOf(tokenId);\r\n        require(to != owner, \"ERC721: approval to current owner\");\r\n\r\n        require(\r\n            _msgSender() == owner || isApprovedForAll(owner, _msgSender()),\r\n            \"ERC721: approve caller is not owner nor approved for all\"\r\n        );\r\n\r\n        _approve(to, tokenId);\r\n    }\r\n\r\n    /**\r\n     * @dev See {IERC721-getApproved}.\r\n     */\r\n    function getApproved(uint256 tokenId) public view virtual override returns (address) {\r\n        require(_exists(tokenId), \"ERC721: approved query for nonexistent token\");\r\n\r\n        return _tokenApprovals[tokenId];\r\n    }\r\n\r\n    /**\r\n     * @dev See {IERC721-setApprovalForAll}.\r\n     */\r\n    function setApprovalForAll(address operator, bool approved) public virtual override {\r\n        require(operator != _msgSender(), \"ERC721: approve to caller\");\r\n\r\n        _operatorApprovals[_msgSender()][operator] = approved;\r\n        emit ApprovalForAll(_msgSender(), operator, approved);\r\n    }\r\n\r\n    /**\r\n     * @dev See {IERC721-isApprovedForAll}.\r\n     */\r\n    function isApprovedForAll(address owner, address operator) public view virtual override returns (bool) {\r\n        return _operatorApprovals[owner][operator];\r\n    }\r\n\r\n    /**\r\n     * @dev See {IERC721-transferFrom}.\r\n     */\r\n    function transferFrom(\r\n        address from,\r\n        address to,\r\n        uint256 tokenId\r\n    ) public virtual override {\r\n        //solhint-disable-next-line max-line-length\r\n        require(_isApprovedOrOwner(_msgSender(), tokenId), \"ERC721: transfer caller is not owner nor approved\");\r\n\r\n        _transfer(from, to, tokenId);\r\n    }\r\n\r\n    /**\r\n     * @dev See {IERC721-safeTransferFrom}.\r\n     */\r\n    function safeTransferFrom(\r\n        address from,\r\n        address to,\r\n        uint256 tokenId\r\n    ) public virtual override {\r\n        safeTransferFrom(from, to, tokenId, \"\");\r\n    }\r\n\r\n    /**\r\n     * @dev See {IERC721-safeTransferFrom}.\r\n     */\r\n    function safeTransferFrom(\r\n        address from,\r\n        address to,\r\n        uint256 tokenId,\r\n        bytes memory _data\r\n    ) public virtual override {\r\n        require(_isApprovedOrOwner(_msgSender(), tokenId), \"ERC721: transfer caller is not owner nor approved\");\r\n        _safeTransfer(from, to, tokenId, _data);\r\n    }\r\n\r\n    /**\r\n     * @dev Safely transfers `tokenId` token from `from` to `to`, checking first that contract recipients\r\n     * are aware of the ERC721 protocol to prevent tokens from being forever locked.\r\n     *\r\n     * `_data` is additional data, it has no specified format and it is sent in call to `to`.\r\n     *\r\n     * This internal function is equivalent to {safeTransferFrom}, and can be used to e.g.\r\n     * implement alternative mechanisms to perform token transfer, such as signature-based.\r\n     *\r\n     * Requirements:\r\n     *\r\n     * - `from` cannot be the zero address.\r\n     * - `to` cannot be the zero address.\r\n     * - `tokenId` token must exist and be owned by `from`.\r\n     * - If `to` refers to a smart contract, it must implement {IERC721Receiver-onERC721Received}, which is called upon a safe transfer.\r\n     *\r\n     * Emits a {Transfer} event.\r\n     */\r\n    function _safeTransfer(\r\n        address from,\r\n        address to,\r\n        uint256 tokenId,\r\n        bytes memory _data\r\n    ) internal virtual {\r\n        _transfer(from, to, tokenId);\r\n        require(_checkOnERC721Received(from, to, tokenId, _data), \"ERC721: transfer to non ERC721Receiver implementer\");\r\n    }\r\n\r\n    /**\r\n     * @dev Returns whether `tokenId` exists.\r\n     *\r\n     * Tokens can be managed by their owner or approved accounts via {approve} or {setApprovalForAll}.\r\n     *\r\n     * Tokens start existing when they are minted (`_mint`),\r\n     * and stop existing when they are burned (`_burn`).\r\n     */\r\n    function _exists(uint256 tokenId) internal view virtual returns (bool) {\r\n        return _owners[tokenId] != address(0);\r\n    }\r\n\r\n    /**\r\n     * @dev Returns whether `spender` is allowed to manage `tokenId`.\r\n     *\r\n     * Requirements:\r\n     *\r\n     * - `tokenId` must exist.\r\n     */\r\n    function _isApprovedOrOwner(address spender, uint256 tokenId) internal view virtual returns (bool) {\r\n        require(_exists(tokenId), \"ERC721: operator query for nonexistent token\");\r\n        address owner = ERC721.ownerOf(tokenId);\r\n        return (spender == owner || getApproved(tokenId) == spender || isApprovedForAll(owner, spender));\r\n    }\r\n\r\n    /**\r\n     * @dev Safely mints `tokenId` and transfers it to `to`.\r\n     *\r\n     * Requirements:\r\n     *\r\n     * - `tokenId` must not exist.\r\n     * - If `to` refers to a smart contract, it must implement {IERC721Receiver-onERC721Received}, which is called upon a safe transfer.\r\n     *\r\n     * Emits a {Transfer} event.\r\n     */\r\n    function _safeMint(address to, uint256 tokenId) internal virtual {\r\n        _safeMint(to, tokenId, \"\");\r\n    }\r\n\r\n    /**\r\n     * @dev Same as {xref-ERC721-_safeMint-address-uint256-}[`_safeMint`], with an additional `data` parameter which is\r\n     * forwarded in {IERC721Receiver-onERC721Received} to contract recipients.\r\n     */\r\n    function _safeMint(\r\n        address to,\r\n        uint256 tokenId,\r\n        bytes memory _data\r\n    ) internal virtual {\r\n        _mint(to, tokenId);\r\n        require(\r\n            _checkOnERC721Received(address(0), to, tokenId, _data),\r\n            \"ERC721: transfer to non ERC721Receiver implementer\"\r\n        );\r\n    }\r\n\r\n    /**\r\n     * @dev Mints `tokenId` and transfers it to `to`.\r\n     *\r\n     * WARNING: Usage of this method is discouraged, use {_safeMint} whenever possible\r\n     *\r\n     * Requirements:\r\n     *\r\n     * - `tokenId` must not exist.\r\n     * - `to` cannot be the zero address.\r\n     *\r\n     * Emits a {Transfer} event.\r\n     */\r\n    function _mint(address to, uint256 tokenId) internal virtual {\r\n        require(to != address(0), \"ERC721: mint to the zero address\");\r\n        require(!_exists(tokenId), \"ERC721: token already minted\");\r\n\r\n        _beforeTokenTransfer(address(0), to, tokenId);\r\n\r\n        _balances[to] += 1;\r\n        _owners[tokenId] = to;\r\n\r\n        emit Transfer(address(0), to, tokenId);\r\n    }\r\n\r\n    /**\r\n     * @dev Destroys `tokenId`.\r\n     * The approval is cleared when the token is burned.\r\n     *\r\n     * Requirements:\r\n     *\r\n     * - `tokenId` must exist.\r\n     *\r\n     * Emits a {Transfer} event.\r\n     */\r\n    function _burn(uint256 tokenId) internal virtual {\r\n        address owner = ERC721.ownerOf(tokenId);\r\n\r\n        _beforeTokenTransfer(owner, address(0), tokenId);\r\n\r\n        // Clear approvals\r\n        _approve(address(0), tokenId);\r\n\r\n        _balances[owner] -= 1;\r\n        delete _owners[tokenId];\r\n\r\n        emit Transfer(owner, address(0), tokenId);\r\n    }\r\n\r\n    /**\r\n     * @dev Transfers `tokenId` from `from` to `to`.\r\n     *  As opposed to {transferFrom}, this imposes no restrictions on msg.sender.\r\n     *\r\n     * Requirements:\r\n     *\r\n     * - `to` cannot be the zero address.\r\n     * - `tokenId` token must be owned by `from`.\r\n     *\r\n     * Emits a {Transfer} event.\r\n     */\r\n    function _transfer(\r\n        address from,\r\n        address to,\r\n        uint256 tokenId\r\n    ) internal virtual {\r\n        require(ERC721.ownerOf(tokenId) == from, \"ERC721: transfer of token that is not own\");\r\n        require(to != address(0), \"ERC721: transfer to the zero address\");\r\n\r\n        _beforeTokenTransfer(from, to, tokenId);\r\n\r\n        // Clear approvals from the previous owner\r\n        _approve(address(0), tokenId);\r\n\r\n        _balances[from] -= 1;\r\n        _balances[to] += 1;\r\n        _owners[tokenId] = to;\r\n\r\n        emit Transfer(from, to, tokenId);\r\n    }\r\n\r\n    /**\r\n     * @dev Approve `to` to operate on `tokenId`\r\n     *\r\n     * Emits a {Approval} event.\r\n     */\r\n    function _approve(address to, uint256 tokenId) internal virtual {\r\n        _tokenApprovals[tokenId] = to;\r\n        emit Approval(ERC721.ownerOf(tokenId), to, tokenId);\r\n    }\r\n\r\n    /**\r\n     * @dev Internal function to invoke {IERC721Receiver-onERC721Received} on a target address.\r\n     * The call is not executed if the target address is not a contract.\r\n     *\r\n     * @param from address representing the previous owner of the given token ID\r\n     * @param to target address that will receive the tokens\r\n     * @param tokenId uint256 ID of the token to be transferred\r\n     * @param _data bytes optional data to send along with the call\r\n     * @return bool whether the call correctly returned the expected magic value\r\n     */\r\n    function _checkOnERC721Received(\r\n        address from,\r\n        address to,\r\n        uint256 tokenId,\r\n        bytes memory _data\r\n    ) private returns (bool) {\r\n        if (to.isContract()) {\r\n            try IERC721Receiver(to).onERC721Received(_msgSender(), from, tokenId, _data) returns (bytes4 retval) {\r\n                return retval == IERC721Receiver.onERC721Received.selector;\r\n            } catch (bytes memory reason) {\r\n                if (reason.length == 0) {\r\n                    revert(\"ERC721: transfer to non ERC721Receiver implementer\");\r\n                } else {\r\n                    assembly {\r\n                        revert(add(32, reason), mload(reason))\r\n                    }\r\n                }\r\n            }\r\n        } else {\r\n            return true;\r\n        }\r\n    }\r\n\r\n    /**\r\n     * @dev Hook that is called before any token transfer. This includes minting\r\n     * and burning.\r\n     *\r\n     * Calling conditions:\r\n     *\r\n     * - When `from` and `to` are both non-zero, ``from``'s `tokenId` will be\r\n     * transferred to `to`.\r\n     * - When `from` is zero, `tokenId` will be minted for `to`.\r\n     * - When `to` is zero, ``from``'s `tokenId` will be burned.\r\n     * - `from` and `to` are never both zero.\r\n     *\r\n     * To learn more about hooks, head to xref:ROOT:extending-contracts.adoc#using-hooks[Using Hooks].\r\n     */\r\n    function _beforeTokenTransfer(\r\n        address from,\r\n        address to,\r\n        uint256 tokenId\r\n    ) internal virtual {}\r\n}\r\nabstract contract ReentrancyGuard {\r\n    \r\n    \r\n    uint256 private constant _NOT_ENTERED = 1;\r\n    uint256 private constant _ENTERED = 2;\r\n\r\n    uint256 private _status;\r\n\r\n    constructor() {\r\n        _status = _NOT_ENTERED;\r\n    }\r\n\r\n    \r\n    modifier nonReentrant() {\r\n        \r\n        require(_status != _ENTERED, \"ReentrancyGuard: reentrant call\");\r\n\r\n        \r\n        _status = _ENTERED;\r\n\r\n        _;\r\n\r\n        \r\n        \r\n        _status = _NOT_ENTERED;\r\n    }\r\n}\r\n\r\nabstract contract Ownable is Context {\r\n    address private _owner;\r\n\r\n    event OwnershipTransferred(address indexed previousOwner, address indexed newOwner);\r\n\r\n    \r\n    constructor() {\r\n        _setOwner(_msgSender());\r\n    }\r\n\r\n    \r\n    function owner() public view virtual returns (address) {\r\n        return _owner;\r\n    }\r\n\r\n    \r\n    modifier onlyOwner() {\r\n        require(owner() == _msgSender(), \"Ownable: caller is not the owner\");\r\n        _;\r\n    }\r\n\r\n    \r\n    function renounceOwnership() public virtual onlyOwner {\r\n        _setOwner(address(0));\r\n    }\r\n\r\n    \r\n    function transferOwnership(address newOwner) public virtual onlyOwner {\r\n        require(newOwner != address(0), \"Ownable: new owner is the zero address\");\r\n        _setOwner(newOwner);\r\n    }\r\n\r\n    function _setOwner(address newOwner) private {\r\n        address oldOwner = _owner;\r\n        _owner = newOwner;\r\n        emit OwnershipTransferred(oldOwner, newOwner);\r\n    }\r\n}\r\n\r\ncontract MyToken is Ownable, ERC721 {\r\n    uint today = block.timestamp;\r\n    string public baseURI = \"https://floydnft.com/token/&quot\";\r\n    uint public totalSupply;\r\n    uint public salePrice;\r\n    uint private LAST_TOKEN_ID = 100;\r\n    uint lastPublickSaleTokenIndex = 0;\r\n    \r\n    constructor(uint _salePrice,\r\n    string memory _tokenName,\r\n    string memory _tokenSymbol) ERC721(_tokenName,_tokenSymbol){\r\n        salePrice = _salePrice;\r\n    }\r\n    function _baseURI() internal view override returns(string memory){\r\n        return baseURI;\r\n    }\r\n    \r\n    function setBaseUri(string memory newUri) external onlyOwner {\r\n        baseURI = newUri;\r\n    }\r\n    \r\n    function _mintAndIncrementSupply(address to, uint tokenId) internal{\r\n        require(tokenId <=100, \"Already created\");\r\n        _mint(to,tokenId);\r\n        totalSupply++;\r\n    }\r\n    \r\n    function buyNft(uint quantity) external payable {\r\n        uint lastTokenId = lastPublickSaleTokenIndex;\r\n        require(msg.value == salePrice * quantity,\"Invalid amount!\");\r\n        \r\n        require(block.timestamp >=today + 5 days, \"Sale not start yet\");\r\n        \r\n        require(block.timestamp >= today + 30 days, \"Slaes has finished\");\r\n        \r\n        for(uint i = 0; i < quantity; i++){\r\n            lastTokenId++;\r\n            _mintAndIncrementSupply(msg.sender,lastTokenId);\r\n        }\r\n        lastPublickSaleTokenIndex = lastTokenId;\r\n    }\r\n}",
  "sourcePath": "D:\\Assignment4again\\contracts\\Assignment4.sol",
  "compiler": {
    "name": "solc",
    "version": "0.8.7+commit.e28d00a7.Emscripten.clang"
  },
  "schemaVersion": "3.4.3",
  "updatedAt": "2021-09-04T07:51:50.195Z",
  "devdoc": {
    "kind": "dev",
    "methods": {
      "approve(address,uint256)": {
        "details": "See {IERC721-approve}."
      },
      "balanceOf(address)": {
        "details": "See {IERC721-balanceOf}."
      },
      "getApproved(uint256)": {
        "details": "See {IERC721-getApproved}."
      },
      "isApprovedForAll(address,address)": {
        "details": "See {IERC721-isApprovedForAll}."
      },
      "name()": {
        "details": "See {IERC721Metadata-name}."
      },
      "ownerOf(uint256)": {
        "details": "See {IERC721-ownerOf}."
      },
      "safeTransferFrom(address,address,uint256)": {
        "details": "See {IERC721-safeTransferFrom}."
      },
      "safeTransferFrom(address,address,uint256,bytes)": {
        "details": "See {IERC721-safeTransferFrom}."
      },
      "setApprovalForAll(address,bool)": {
        "details": "See {IERC721-setApprovalForAll}."
      },
      "supportsInterface(bytes4)": {
        "details": "See {IERC165-supportsInterface}."
      },
      "symbol()": {
        "details": "See {IERC721Metadata-symbol}."
      },
      "tokenURI(uint256)": {
        "details": "See {IERC721Metadata-tokenURI}."
      },
      "transferFrom(address,address,uint256)": {
        "details": "See {IERC721-transferFrom}."
      }
    },
    "version": 1
  },
  "userdoc": {
    "kind": "user",
    "methods": {},
    "version": 1
  }
}